{
    "_format": "hh-sol-artifact-1",
    "contractName": "Poke",
    "sourceName": "contracts/Poke.sol",
    "abi": [
        {
            "inputs": [],
            "stateMutability": "nonpayable",
            "type": "constructor"
        },
        {
            "inputs": [
                {
                    "internalType": "address",
                    "name": "_poker",
                    "type": "address"
                }
            ],
            "name": "getPokerPokes",
            "outputs": [
                {
                    "internalType": "uint256",
                    "name": "",
                    "type": "uint256"
                }
            ],
            "stateMutability": "view",
            "type": "function"
        },
        {
            "inputs": [],
            "name": "getTotalPokes",
            "outputs": [
                {
                    "internalType": "uint256",
                    "name": "",
                    "type": "uint256"
                }
            ],
            "stateMutability": "view",
            "type": "function"
        },
        {
            "inputs": [],
            "name": "poke",
            "outputs": [],
            "stateMutability": "nonpayable",
            "type": "function"
        },
        {
            "inputs": [
                {
                    "internalType": "address",
                    "name": "",
                    "type": "address"
                }
            ],
            "name": "pokers",
            "outputs": [
                {
                    "internalType": "uint256",
                    "name": "pokesGiven",
                    "type": "uint256"
                },
                {
                    "internalType": "uint256",
                    "name": "lastTimePokeAt",
                    "type": "uint256"
                },
                {
                    "internalType": "bool",
                    "name": "alreadyPoked",
                    "type": "bool"
                }
            ],
            "stateMutability": "view",
            "type": "function"
        },
        {
            "inputs": [],
            "name": "totalPokers",
            "outputs": [
                {
                    "internalType": "uint256",
                    "name": "",
                    "type": "uint256"
                }
            ],
            "stateMutability": "view",
            "type": "function"
        },
        {
            "inputs": [],
            "name": "totalPokes",
            "outputs": [
                {
                    "internalType": "uint256",
                    "name": "",
                    "type": "uint256"
                }
            ],
            "stateMutability": "view",
            "type": "function"
        }
    ],
    "bytecode": "0x60806040523480156200001157600080fd5b506200004160405180606001604052806025815260200162000cd3602591396200004760201b6200051f1760201c565b620001db565b620000e7816040516024016200005e919062000154565b6040516020818303038152906040527f41304fac000000000000000000000000000000000000000000000000000000007bffffffffffffffffffffffffffffffffffffffffffffffffffffffff19166020820180517bffffffffffffffffffffffffffffffffffffffffffffffffffffffff8381831617835250505050620000ea60201b60201c565b50565b60008151905060006a636f6e736f6c652e6c6f679050602083016000808483855afa5050505050565b6000620001208262000178565b6200012c818562000183565b93506200013e81856020860162000194565b6200014981620001ca565b840191505092915050565b6000602082019050818103600083015262000170818462000113565b905092915050565b600081519050919050565b600082825260208201905092915050565b60005b83811015620001b457808201518184015260208101905062000197565b83811115620001c4576000848401525b50505050565b6000601f19601f8301169050919050565b610ae880620001eb6000396000f3fe608060405234801561001057600080fd5b50600436106100625760003560e01c806311b2ed0014610067578063134679191461008557806318178358146100a357806326e64edd146100ad5780634cc1c348146100df578063fcc1b4fc146100fd575b600080fd5b61006f61012d565b60405161007c919061091c565b60405180910390f35b61008d610133565b60405161009a919061091c565b60405180910390f35b6100ab61017e565b005b6100c760048036038101906100c291906107cd565b610414565b6040516100d693929190610937565b60405180910390f35b6100e761044b565b6040516100f4919061091c565b60405180910390f35b610117600480360381019061011291906107cd565b610451565b604051610124919061091c565b60405180910390f35b60015481565b60006101766040518060400160405280601781526020017f5765206861766520256420746f74616c20706f6b6573210000000000000000008152506000546105b8565b600054905090565b60001515600260003373ffffffffffffffffffffffffffffffffffffffff1673ffffffffffffffffffffffffffffffffffffffff16815260200190815260200160002060020160009054906101000a900460ff16151514156102dd57600180546101e8919061098a565b6001819055506001600260003373ffffffffffffffffffffffffffffffffffffffff1673ffffffffffffffffffffffffffffffffffffffff168152602001908152602001600020600001819055506001600260003373ffffffffffffffffffffffffffffffffffffffff1673ffffffffffffffffffffffffffffffffffffffff16815260200190815260200160002060020160006101000a81548160ff02191690831515021790555042600260003373ffffffffffffffffffffffffffffffffffffffff1673ffffffffffffffffffffffffffffffffffffffff168152602001908152602001600020600101819055506103ba565b6001600260003373ffffffffffffffffffffffffffffffffffffffff1673ffffffffffffffffffffffffffffffffffffffff1681526020019081526020016000206000015461032c919061098a565b600260003373ffffffffffffffffffffffffffffffffffffffff1673ffffffffffffffffffffffffffffffffffffffff1681526020019081526020016000206000018190555042600260003373ffffffffffffffffffffffffffffffffffffffff1673ffffffffffffffffffffffffffffffffffffffff168152602001908152602001600020600101819055505b60016000808282546103cc919061098a565b925050819055506104126040518060400160405280600d81526020017f25732068617320706f6b6564210000000000000000000000000000000000000081525033610654565b565b60026020528060005260406000206000915090508060000154908060010154908060020160009054906101000a900460ff16905083565b60005481565b60006104d56040518060400160405280601681526020017f25732068617320706f6b65642025642074696d6573210000000000000000000081525083600260008673ffffffffffffffffffffffffffffffffffffffff1673ffffffffffffffffffffffffffffffffffffffff168152602001908152602001600020600001546106f0565b600260008373ffffffffffffffffffffffffffffffffffffffff1673ffffffffffffffffffffffffffffffffffffffff168152602001908152602001600020600001549050919050565b6105b581604051602401610533919061085c565b6040516020818303038152906040527f41304fac000000000000000000000000000000000000000000000000000000007bffffffffffffffffffffffffffffffffffffffffffffffffffffffff19166020820180517bffffffffffffffffffffffffffffffffffffffffffffffffffffffff838183161783525050505061078f565b50565b61065082826040516024016105ce9291906108ec565b6040516020818303038152906040527f9710a9d0000000000000000000000000000000000000000000000000000000007bffffffffffffffffffffffffffffffffffffffffffffffffffffffff19166020820180517bffffffffffffffffffffffffffffffffffffffffffffffffffffffff838183161783525050505061078f565b5050565b6106ec828260405160240161066a92919061087e565b6040516020818303038152906040527f319af333000000000000000000000000000000000000000000000000000000007bffffffffffffffffffffffffffffffffffffffffffffffffffffffff19166020820180517bffffffffffffffffffffffffffffffffffffffffffffffffffffffff838183161783525050505061078f565b5050565b61078a838383604051602401610708939291906108ae565b6040516020818303038152906040527f07c81217000000000000000000000000000000000000000000000000000000007bffffffffffffffffffffffffffffffffffffffffffffffffffffffff19166020820180517bffffffffffffffffffffffffffffffffffffffffffffffffffffffff838183161783525050505061078f565b505050565b60008151905060006a636f6e736f6c652e6c6f679050602083016000808483855afa5050505050565b6000813590506107c781610a9b565b92915050565b6000602082840312156107df57600080fd5b60006107ed848285016107b8565b91505092915050565b6107ff816109e0565b82525050565b61080e816109f2565b82525050565b600061081f8261096e565b6108298185610979565b9350610839818560208601610a28565b61084281610a8a565b840191505092915050565b61085681610a1e565b82525050565b600060208201905081810360008301526108768184610814565b905092915050565b600060408201905081810360008301526108988185610814565b90506108a760208301846107f6565b9392505050565b600060608201905081810360008301526108c88186610814565b90506108d760208301856107f6565b6108e4604083018461084d565b949350505050565b600060408201905081810360008301526109068185610814565b9050610915602083018461084d565b9392505050565b6000602082019050610931600083018461084d565b92915050565b600060608201905061094c600083018661084d565b610959602083018561084d565b6109666040830184610805565b949350505050565b600081519050919050565b600082825260208201905092915050565b600061099582610a1e565b91506109a083610a1e565b9250827fffffffffffffffffffffffffffffffffffffffffffffffffffffffffffffffff038211156109d5576109d4610a5b565b5b828201905092915050565b60006109eb826109fe565b9050919050565b60008115159050919050565b600073ffffffffffffffffffffffffffffffffffffffff82169050919050565b6000819050919050565b60005b83811015610a46578082015181840152602081019050610a2b565b83811115610a55576000848401525b50505050565b7f4e487b7100000000000000000000000000000000000000000000000000000000600052601160045260246000fd5b6000601f19601f8301169050919050565b610aa4816109e0565b8114610aaf57600080fd5b5056fea2646970667358221220d6800e50acbb998fcb2e83d6c220cf2c1ef7c7385edadd67e6416e44943ef71164736f6c63430008040033596f20796f2c204920616d206120636f6e747261637420616e64204920616d20736d617274",
    "linkReferences": {},
    "deployedLinkReferences": {}
}