{
  "_format": "hh-sol-artifact-1",
  "contractName": "Poke",
  "sourceName": "contracts/Poke.sol",
  "abi": [
    {
      "inputs": [],
      "stateMutability": "nonpayable",
      "type": "constructor"
    },
    {
      "anonymous": false,
      "inputs": [
        {
          "indexed": true,
          "internalType": "address",
          "name": "poker",
          "type": "address"
        },
        {
          "indexed": false,
          "internalType": "uint256",
          "name": "timestamp",
          "type": "uint256"
        },
        {
          "indexed": false,
          "internalType": "string",
          "name": "message",
          "type": "string"
        }
      ],
      "name": "NewPoke",
      "type": "event"
    },
    {
      "inputs": [],
      "name": "getAllPokes",
      "outputs": [
        {
          "components": [
            {
              "internalType": "address",
              "name": "poker",
              "type": "address"
            },
            {
              "internalType": "string",
              "name": "message",
              "type": "string"
            },
            {
              "internalType": "uint256",
              "name": "timestamp",
              "type": "uint256"
            }
          ],
          "internalType": "struct Poke.SinglePoke[]",
          "name": "",
          "type": "tuple[]"
        }
      ],
      "stateMutability": "view",
      "type": "function"
    },
    {
      "inputs": [
        {
          "internalType": "address",
          "name": "_poker",
          "type": "address"
        }
      ],
      "name": "getPokerPokes",
      "outputs": [
        {
          "internalType": "uint256",
          "name": "",
          "type": "uint256"
        }
      ],
      "stateMutability": "view",
      "type": "function"
    },
    {
      "inputs": [],
      "name": "getTotalPokes",
      "outputs": [
        {
          "internalType": "uint256",
          "name": "",
          "type": "uint256"
        }
      ],
      "stateMutability": "view",
      "type": "function"
    },
    {
      "inputs": [
        {
          "internalType": "string",
          "name": "_message",
          "type": "string"
        }
      ],
      "name": "poke",
      "outputs": [],
      "stateMutability": "nonpayable",
      "type": "function"
    },
    {
      "inputs": [
        {
          "internalType": "address",
          "name": "",
          "type": "address"
        }
      ],
      "name": "pokers",
      "outputs": [
        {
          "internalType": "uint256",
          "name": "pokesGiven",
          "type": "uint256"
        },
        {
          "internalType": "uint256",
          "name": "lastTimePokeAt",
          "type": "uint256"
        },
        {
          "internalType": "bool",
          "name": "alreadyPoked",
          "type": "bool"
        }
      ],
      "stateMutability": "view",
      "type": "function"
    },
    {
      "inputs": [
        {
          "internalType": "uint256",
          "name": "",
          "type": "uint256"
        }
      ],
      "name": "pokes",
      "outputs": [
        {
          "internalType": "address",
          "name": "poker",
          "type": "address"
        },
        {
          "internalType": "string",
          "name": "message",
          "type": "string"
        },
        {
          "internalType": "uint256",
          "name": "timestamp",
          "type": "uint256"
        }
      ],
      "stateMutability": "view",
      "type": "function"
    },
    {
      "inputs": [],
      "name": "totalPokers",
      "outputs": [
        {
          "internalType": "uint256",
          "name": "",
          "type": "uint256"
        }
      ],
      "stateMutability": "view",
      "type": "function"
    },
    {
      "inputs": [],
      "name": "totalPokes",
      "outputs": [
        {
          "internalType": "uint256",
          "name": "",
          "type": "uint256"
        }
      ],
      "stateMutability": "view",
      "type": "function"
    }
  ],
  "bytecode": "0x60806040523480156200001157600080fd5b50620000416040518060600160405280602581526020016200157c602591396200004760201b620008f71760201c565b620001db565b620000e7816040516024016200005e919062000154565b6040516020818303038152906040527f41304fac000000000000000000000000000000000000000000000000000000007bffffffffffffffffffffffffffffffffffffffffffffffffffffffff19166020820180517bffffffffffffffffffffffffffffffffffffffffffffffffffffffff8381831617835250505050620000ea60201b60201c565b50565b60008151905060006a636f6e736f6c652e6c6f679050602083016000808483855afa5050505050565b6000620001208262000178565b6200012c818562000183565b93506200013e81856020860162000194565b6200014981620001ca565b840191505092915050565b6000602082019050818103600083015262000170818462000113565b905092915050565b600081519050919050565b600082825260208201905092915050565b60005b83811015620001b457808201518184015260208101905062000197565b83811115620001c4576000848401525b50505050565b6000601f19601f8301169050919050565b61139180620001eb6000396000f3fe608060405234801561001057600080fd5b50600436106100885760003560e01c80636c039d911161005b5780636c039d9114610119578063c9779c351461014b578063eda21f1414610167578063fcc1b4fc1461018557610088565b806311b2ed001461008d57806313467919146100ab57806326e64edd146100c95780634cc1c348146100fb575b600080fd5b6100956101b5565b6040516100a2919061100e565b60405180910390f35b6100b36101bb565b6040516100c0919061100e565b60405180910390f35b6100e360048036038101906100de9190610cc5565b610206565b6040516100f293929190611059565b60405180910390f35b61010361023d565b604051610110919061100e565b60405180910390f35b610133600480360381019061012e9190610d2f565b610243565b60405161014293929190610eee565b60405180910390f35b61016560048036038101906101609190610cee565b610325565b005b61016f6106d8565b60405161017c9190610f2c565b60405180910390f35b61019f600480360381019061019a9190610cc5565b610829565b6040516101ac919061100e565b60405180910390f35b60015481565b60006101fe6040518060400160405280601781526020017f5765206861766520256420746f74616c20706f6b657321000000000000000000815250600054610990565b600054905090565b60036020528060005260406000206000915090508060000154908060010154908060020160009054906101000a900460ff16905083565b60005481565b6002818154811061025357600080fd5b90600052602060002090600302016000915090508060000160009054906101000a900473ffffffffffffffffffffffffffffffffffffffff169080600101805461029c9061122c565b80601f01602080910402602001604051908101604052809291908181526020018280546102c89061122c565b80156103155780601f106102ea57610100808354040283529160200191610315565b820191906000526020600020905b8154815290600101906020018083116102f857829003601f168201915b5050505050908060020154905083565b60001515600360003373ffffffffffffffffffffffffffffffffffffffff1673ffffffffffffffffffffffffffffffffffffffff16815260200190815260200160002060020160009054906101000a900460ff1615151415610484576001805461038f919061114c565b6001819055506001600360003373ffffffffffffffffffffffffffffffffffffffff1673ffffffffffffffffffffffffffffffffffffffff168152602001908152602001600020600001819055506001600360003373ffffffffffffffffffffffffffffffffffffffff1673ffffffffffffffffffffffffffffffffffffffff16815260200190815260200160002060020160006101000a81548160ff02191690831515021790555042600360003373ffffffffffffffffffffffffffffffffffffffff1673ffffffffffffffffffffffffffffffffffffffff16815260200190815260200160002060010181905550610561565b6001600360003373ffffffffffffffffffffffffffffffffffffffff1673ffffffffffffffffffffffffffffffffffffffff168152602001908152602001600020600001546104d3919061114c565b600360003373ffffffffffffffffffffffffffffffffffffffff1673ffffffffffffffffffffffffffffffffffffffff1681526020019081526020016000206000018190555042600360003373ffffffffffffffffffffffffffffffffffffffff1673ffffffffffffffffffffffffffffffffffffffff168152602001908152602001600020600101819055505b6001600080828254610573919061114c565b92505081905550600260405180606001604052803373ffffffffffffffffffffffffffffffffffffffff16815260200183815260200142815250908060018154018082558091505060019003906000526020600020906003020160009091909190915060008201518160000160006101000a81548173ffffffffffffffffffffffffffffffffffffffff021916908373ffffffffffffffffffffffffffffffffffffffff1602179055506020820151816001019080519060200190610639929190610b90565b506040820151816002015550506106856040518060400160405280600d81526020017f25732068617320706f6b6564210000000000000000000000000000000000000081525033610a2c565b3373ffffffffffffffffffffffffffffffffffffffff167f4f82870d3c424fade346d15919991f9b3c200d77d572675c7991ea5b7922c98d42836040516106cd929190611029565b60405180910390a250565b60606002805480602002602001604051908101604052809291908181526020016000905b8282101561082057838290600052602060002090600302016040518060600160405290816000820160009054906101000a900473ffffffffffffffffffffffffffffffffffffffff1673ffffffffffffffffffffffffffffffffffffffff1673ffffffffffffffffffffffffffffffffffffffff1681526020016001820180546107859061122c565b80601f01602080910402602001604051908101604052809291908181526020018280546107b19061122c565b80156107fe5780601f106107d3576101008083540402835291602001916107fe565b820191906000526020600020905b8154815290600101906020018083116107e157829003601f168201915b50505050508152602001600282015481525050815260200190600101906106fc565b50505050905090565b60006108ad6040518060400160405280601681526020017f25732068617320706f6b65642025642074696d6573210000000000000000000081525083600360008673ffffffffffffffffffffffffffffffffffffffff1673ffffffffffffffffffffffffffffffffffffffff16815260200190815260200160002060000154610ac8565b600360008373ffffffffffffffffffffffffffffffffffffffff1673ffffffffffffffffffffffffffffffffffffffff168152602001908152602001600020600001549050919050565b61098d8160405160240161090b9190610f4e565b6040516020818303038152906040527f41304fac000000000000000000000000000000000000000000000000000000007bffffffffffffffffffffffffffffffffffffffffffffffffffffffff19166020820180517bffffffffffffffffffffffffffffffffffffffffffffffffffffffff8381831617835250505050610b67565b50565b610a2882826040516024016109a6929190610fde565b6040516020818303038152906040527f9710a9d0000000000000000000000000000000000000000000000000000000007bffffffffffffffffffffffffffffffffffffffffffffffffffffffff19166020820180517bffffffffffffffffffffffffffffffffffffffffffffffffffffffff8381831617835250505050610b67565b5050565b610ac48282604051602401610a42929190610f70565b6040516020818303038152906040527f319af333000000000000000000000000000000000000000000000000000000007bffffffffffffffffffffffffffffffffffffffffffffffffffffffff19166020820180517bffffffffffffffffffffffffffffffffffffffffffffffffffffffff8381831617835250505050610b67565b5050565b610b62838383604051602401610ae093929190610fa0565b6040516020818303038152906040527f07c81217000000000000000000000000000000000000000000000000000000007bffffffffffffffffffffffffffffffffffffffffffffffffffffffff19166020820180517bffffffffffffffffffffffffffffffffffffffffffffffffffffffff8381831617835250505050610b67565b505050565b60008151905060006a636f6e736f6c652e6c6f679050602083016000808483855afa5050505050565b828054610b9c9061122c565b90600052602060002090601f016020900481019282610bbe5760008555610c05565b82601f10610bd757805160ff1916838001178555610c05565b82800160010185558215610c05579182015b82811115610c04578251825591602001919060010190610be9565b5b509050610c129190610c16565b5090565b5b80821115610c2f576000816000905550600101610c17565b5090565b6000610c46610c41846110b5565b611090565b905082815260208101848484011115610c5e57600080fd5b610c698482856111ea565b509392505050565b600081359050610c808161132d565b92915050565b600082601f830112610c9757600080fd5b8135610ca7848260208601610c33565b91505092915050565b600081359050610cbf81611344565b92915050565b600060208284031215610cd757600080fd5b6000610ce584828501610c71565b91505092915050565b600060208284031215610d0057600080fd5b600082013567ffffffffffffffff811115610d1a57600080fd5b610d2684828501610c86565b91505092915050565b600060208284031215610d4157600080fd5b6000610d4f84828501610cb0565b91505092915050565b6000610d648383610e80565b905092915050565b610d75816111a2565b82525050565b610d84816111a2565b82525050565b6000610d95826110f6565b610d9f8185611119565b935083602082028501610db1856110e6565b8060005b85811015610ded5784840389528151610dce8582610d58565b9450610dd98361110c565b925060208a01995050600181019050610db5565b50829750879550505050505092915050565b610e08816111b4565b82525050565b6000610e1982611101565b610e23818561112a565b9350610e338185602086016111f9565b610e3c8161131c565b840191505092915050565b6000610e5282611101565b610e5c818561113b565b9350610e6c8185602086016111f9565b610e758161131c565b840191505092915050565b6000606083016000830151610e986000860182610d6c565b5060208301518482036020860152610eb08282610e0e565b9150506040830151610ec56040860182610ed0565b508091505092915050565b610ed9816111e0565b82525050565b610ee8816111e0565b82525050565b6000606082019050610f036000830186610d7b565b8181036020830152610f158185610e47565b9050610f246040830184610edf565b949350505050565b60006020820190508181036000830152610f468184610d8a565b905092915050565b60006020820190508181036000830152610f688184610e47565b905092915050565b60006040820190508181036000830152610f8a8185610e47565b9050610f996020830184610d7b565b9392505050565b60006060820190508181036000830152610fba8186610e47565b9050610fc96020830185610d7b565b610fd66040830184610edf565b949350505050565b60006040820190508181036000830152610ff88185610e47565b90506110076020830184610edf565b9392505050565b60006020820190506110236000830184610edf565b92915050565b600060408201905061103e6000830185610edf565b81810360208301526110508184610e47565b90509392505050565b600060608201905061106e6000830186610edf565b61107b6020830185610edf565b6110886040830184610dff565b949350505050565b600061109a6110ab565b90506110a6828261125e565b919050565b6000604051905090565b600067ffffffffffffffff8211156110d0576110cf6112ed565b5b6110d98261131c565b9050602081019050919050565b6000819050602082019050919050565b600081519050919050565b600081519050919050565b6000602082019050919050565b600082825260208201905092915050565b600082825260208201905092915050565b600082825260208201905092915050565b6000611157826111e0565b9150611162836111e0565b9250827fffffffffffffffffffffffffffffffffffffffffffffffffffffffffffffffff038211156111975761119661128f565b5b828201905092915050565b60006111ad826111c0565b9050919050565b60008115159050919050565b600073ffffffffffffffffffffffffffffffffffffffff82169050919050565b6000819050919050565b82818337600083830152505050565b60005b838110156112175780820151818401526020810190506111fc565b83811115611226576000848401525b50505050565b6000600282049050600182168061124457607f821691505b60208210811415611258576112576112be565b5b50919050565b6112678261131c565b810181811067ffffffffffffffff82111715611286576112856112ed565b5b80604052505050565b7f4e487b7100000000000000000000000000000000000000000000000000000000600052601160045260246000fd5b7f4e487b7100000000000000000000000000000000000000000000000000000000600052602260045260246000fd5b7f4e487b7100000000000000000000000000000000000000000000000000000000600052604160045260246000fd5b6000601f19601f8301169050919050565b611336816111a2565b811461134157600080fd5b50565b61134d816111e0565b811461135857600080fd5b5056fea2646970667358221220fec16880df7978e9537089e345f3ddb3ab2b4ee9b0a2f2dc2d60e1268ff67b9364736f6c63430008040033596f20796f2c204920616d206120636f6e747261637420616e64204920616d20736d617274",
  "linkReferences": {},
  "deployedLinkReferences": {}
}