{
  "_format": "hh-sol-artifact-1",
  "contractName": "Poke",
  "sourceName": "contracts/Poke.sol",
  "abi": [
    {
      "inputs": [],
      "stateMutability": "payable",
      "type": "constructor"
    },
    {
      "anonymous": false,
      "inputs": [
        {
          "indexed": true,
          "internalType": "address",
          "name": "poker",
          "type": "address"
        },
        {
          "indexed": false,
          "internalType": "uint256",
          "name": "timestamp",
          "type": "uint256"
        },
        {
          "indexed": false,
          "internalType": "string",
          "name": "message",
          "type": "string"
        }
      ],
      "name": "NewPoke",
      "type": "event"
    },
    {
      "inputs": [],
      "name": "getAllPokes",
      "outputs": [
        {
          "components": [
            {
              "internalType": "address",
              "name": "poker",
              "type": "address"
            },
            {
              "internalType": "string",
              "name": "message",
              "type": "string"
            },
            {
              "internalType": "uint256",
              "name": "timestamp",
              "type": "uint256"
            }
          ],
          "internalType": "struct Poke.SinglePoke[]",
          "name": "",
          "type": "tuple[]"
        }
      ],
      "stateMutability": "view",
      "type": "function"
    },
    {
      "inputs": [
        {
          "internalType": "address",
          "name": "_poker",
          "type": "address"
        }
      ],
      "name": "getPokerPokes",
      "outputs": [
        {
          "internalType": "uint256",
          "name": "",
          "type": "uint256"
        }
      ],
      "stateMutability": "view",
      "type": "function"
    },
    {
      "inputs": [],
      "name": "getTotalPokes",
      "outputs": [
        {
          "internalType": "uint256",
          "name": "",
          "type": "uint256"
        }
      ],
      "stateMutability": "view",
      "type": "function"
    },
    {
      "inputs": [
        {
          "internalType": "string",
          "name": "_message",
          "type": "string"
        }
      ],
      "name": "poke",
      "outputs": [],
      "stateMutability": "nonpayable",
      "type": "function"
    },
    {
      "inputs": [
        {
          "internalType": "address",
          "name": "",
          "type": "address"
        }
      ],
      "name": "pokers",
      "outputs": [
        {
          "internalType": "uint256",
          "name": "pokesGiven",
          "type": "uint256"
        },
        {
          "internalType": "uint256",
          "name": "lastTimePokeAt",
          "type": "uint256"
        },
        {
          "internalType": "bool",
          "name": "alreadyPoked",
          "type": "bool"
        }
      ],
      "stateMutability": "view",
      "type": "function"
    },
    {
      "inputs": [
        {
          "internalType": "uint256",
          "name": "",
          "type": "uint256"
        }
      ],
      "name": "pokes",
      "outputs": [
        {
          "internalType": "address",
          "name": "poker",
          "type": "address"
        },
        {
          "internalType": "string",
          "name": "message",
          "type": "string"
        },
        {
          "internalType": "uint256",
          "name": "timestamp",
          "type": "uint256"
        }
      ],
      "stateMutability": "view",
      "type": "function"
    },
    {
      "inputs": [],
      "name": "totalPokers",
      "outputs": [
        {
          "internalType": "uint256",
          "name": "",
          "type": "uint256"
        }
      ],
      "stateMutability": "view",
      "type": "function"
    },
    {
      "inputs": [],
      "name": "totalPokes",
      "outputs": [
        {
          "internalType": "uint256",
          "name": "",
          "type": "uint256"
        }
      ],
      "stateMutability": "view",
      "type": "function"
    }
  ],
  "bytecode": "0x608060405262000033604051806060016040528060258152602001620017d4602591396200003960201b620009f31760201c565b620001cd565b620000d98160405160240162000050919062000146565b6040516020818303038152906040527f41304fac000000000000000000000000000000000000000000000000000000007bffffffffffffffffffffffffffffffffffffffffffffffffffffffff19166020820180517bffffffffffffffffffffffffffffffffffffffffffffffffffffffff8381831617835250505050620000dc60201b60201c565b50565b60008151905060006a636f6e736f6c652e6c6f679050602083016000808483855afa5050505050565b600062000112826200016a565b6200011e818562000175565b93506200013081856020860162000186565b6200013b81620001bc565b840191505092915050565b6000602082019050818103600083015262000162818462000105565b905092915050565b600081519050919050565b600082825260208201905092915050565b60005b83811015620001a657808201518184015260208101905062000189565b83811115620001b6576000848401525b50505050565b6000601f19601f8301169050919050565b6115f780620001dd6000396000f3fe608060405234801561001057600080fd5b50600436106100885760003560e01c80636c039d911161005b5780636c039d9114610119578063c9779c351461014b578063eda21f1414610167578063fcc1b4fc1461018557610088565b806311b2ed001461008d57806313467919146100ab57806326e64edd146100c95780634cc1c348146100fb575b600080fd5b6100956101b5565b6040516100a291906111c8565b60405180910390f35b6100b36101bb565b6040516100c091906111c8565b60405180910390f35b6100e360048036038101906100de9190610dc1565b610206565b6040516100f293929190611213565b60405180910390f35b61010361023d565b60405161011091906111c8565b60405180910390f35b610133600480360381019061012e9190610e2b565b610243565b60405161014293929190611068565b60405180910390f35b61016560048036038101906101609190610dea565b610325565b005b61016f6107d4565b60405161017c91906110a6565b60405180910390f35b61019f600480360381019061019a9190610dc1565b610925565b6040516101ac91906111c8565b60405180910390f35b60015481565b60006101fe6040518060400160405280601781526020017f5765206861766520256420746f74616c20706f6b657321000000000000000000815250600054610a8c565b600054905090565b60036020528060005260406000206000915090508060000154908060010154908060020160009054906101000a900460ff16905083565b60005481565b6002818154811061025357600080fd5b90600052602060002090600302016000915090508060000160009054906101000a900473ffffffffffffffffffffffffffffffffffffffff169080600101805461029c906113f1565b80601f01602080910402602001604051908101604052809291908181526020018280546102c8906113f1565b80156103155780601f106102ea57610100808354040283529160200191610315565b820191906000526020600020905b8154815290600101906020018083116102f857829003601f168201915b5050505050908060020154905083565b60001515600360003373ffffffffffffffffffffffffffffffffffffffff1673ffffffffffffffffffffffffffffffffffffffff16815260200190815260200160002060020160009054906101000a900460ff1615151415610484576001805461038f9190611311565b6001819055506001600360003373ffffffffffffffffffffffffffffffffffffffff1673ffffffffffffffffffffffffffffffffffffffff168152602001908152602001600020600001819055506001600360003373ffffffffffffffffffffffffffffffffffffffff1673ffffffffffffffffffffffffffffffffffffffff16815260200190815260200160002060020160006101000a81548160ff02191690831515021790555042600360003373ffffffffffffffffffffffffffffffffffffffff1673ffffffffffffffffffffffffffffffffffffffff16815260200190815260200160002060010181905550610561565b6001600360003373ffffffffffffffffffffffffffffffffffffffff1673ffffffffffffffffffffffffffffffffffffffff168152602001908152602001600020600001546104d39190611311565b600360003373ffffffffffffffffffffffffffffffffffffffff1673ffffffffffffffffffffffffffffffffffffffff1681526020019081526020016000206000018190555042600360003373ffffffffffffffffffffffffffffffffffffffff1673ffffffffffffffffffffffffffffffffffffffff168152602001908152602001600020600101819055505b60016000808282546105739190611311565b92505081905550600260405180606001604052803373ffffffffffffffffffffffffffffffffffffffff16815260200183815260200142815250908060018154018082558091505060019003906000526020600020906003020160009091909190915060008201518160000160006101000a81548173ffffffffffffffffffffffffffffffffffffffff021916908373ffffffffffffffffffffffffffffffffffffffff1602179055506020820151816001019080519060200190610639929190610c8c565b506040820151816002015550506106856040518060400160405280600d81526020017f25732068617320706f6b6564210000000000000000000000000000000000000081525033610b28565b3373ffffffffffffffffffffffffffffffffffffffff167f4f82870d3c424fade346d15919991f9b3c200d77d572675c7991ea5b7922c98d42836040516106cd9291906111e3565b60405180910390a26000655af3107a4000905047811115610723576040517f08c379a000000000000000000000000000000000000000000000000000000000815260040161071a90611188565b60405180910390fd5b60003373ffffffffffffffffffffffffffffffffffffffff168260405161074990611053565b60006040518083038185875af1925050503d8060008114610786576040519150601f19603f3d011682016040523d82523d6000602084013e61078b565b606091505b50509050806107cf576040517f08c379a00000000000000000000000000000000000000000000000000000000081526004016107c6906111a8565b60405180910390fd5b505050565b60606002805480602002602001604051908101604052809291908181526020016000905b8282101561091c57838290600052602060002090600302016040518060600160405290816000820160009054906101000a900473ffffffffffffffffffffffffffffffffffffffff1673ffffffffffffffffffffffffffffffffffffffff1673ffffffffffffffffffffffffffffffffffffffff168152602001600182018054610881906113f1565b80601f01602080910402602001604051908101604052809291908181526020018280546108ad906113f1565b80156108fa5780601f106108cf576101008083540402835291602001916108fa565b820191906000526020600020905b8154815290600101906020018083116108dd57829003601f168201915b50505050508152602001600282015481525050815260200190600101906107f8565b50505050905090565b60006109a96040518060400160405280601681526020017f25732068617320706f6b65642025642074696d6573210000000000000000000081525083600360008673ffffffffffffffffffffffffffffffffffffffff1673ffffffffffffffffffffffffffffffffffffffff16815260200190815260200160002060000154610bc4565b600360008373ffffffffffffffffffffffffffffffffffffffff1673ffffffffffffffffffffffffffffffffffffffff168152602001908152602001600020600001549050919050565b610a8981604051602401610a0791906110c8565b6040516020818303038152906040527f41304fac000000000000000000000000000000000000000000000000000000007bffffffffffffffffffffffffffffffffffffffffffffffffffffffff19166020820180517bffffffffffffffffffffffffffffffffffffffffffffffffffffffff8381831617835250505050610c63565b50565b610b248282604051602401610aa2929190611158565b6040516020818303038152906040527f9710a9d0000000000000000000000000000000000000000000000000000000007bffffffffffffffffffffffffffffffffffffffffffffffffffffffff19166020820180517bffffffffffffffffffffffffffffffffffffffffffffffffffffffff8381831617835250505050610c63565b5050565b610bc08282604051602401610b3e9291906110ea565b6040516020818303038152906040527f319af333000000000000000000000000000000000000000000000000000000007bffffffffffffffffffffffffffffffffffffffffffffffffffffffff19166020820180517bffffffffffffffffffffffffffffffffffffffffffffffffffffffff8381831617835250505050610c63565b5050565b610c5e838383604051602401610bdc9392919061111a565b6040516020818303038152906040527f07c81217000000000000000000000000000000000000000000000000000000007bffffffffffffffffffffffffffffffffffffffffffffffffffffffff19166020820180517bffffffffffffffffffffffffffffffffffffffffffffffffffffffff8381831617835250505050610c63565b505050565b60008151905060006a636f6e736f6c652e6c6f679050602083016000808483855afa5050505050565b828054610c98906113f1565b90600052602060002090601f016020900481019282610cba5760008555610d01565b82601f10610cd357805160ff1916838001178555610d01565b82800160010185558215610d01579182015b82811115610d00578251825591602001919060010190610ce5565b5b509050610d0e9190610d12565b5090565b5b80821115610d2b576000816000905550600101610d13565b5090565b6000610d42610d3d8461126f565b61124a565b905082815260208101848484011115610d5a57600080fd5b610d658482856113af565b509392505050565b600081359050610d7c81611593565b92915050565b600082601f830112610d9357600080fd5b8135610da3848260208601610d2f565b91505092915050565b600081359050610dbb816115aa565b92915050565b600060208284031215610dd357600080fd5b6000610de184828501610d6d565b91505092915050565b600060208284031215610dfc57600080fd5b600082013567ffffffffffffffff811115610e1657600080fd5b610e2284828501610d82565b91505092915050565b600060208284031215610e3d57600080fd5b6000610e4b84828501610dac565b91505092915050565b6000610e608383610fe5565b905092915050565b610e7181611367565b82525050565b610e8081611367565b82525050565b6000610e91826112b0565b610e9b81856112d3565b935083602082028501610ead856112a0565b8060005b85811015610ee95784840389528151610eca8582610e54565b9450610ed5836112c6565b925060208a01995050600181019050610eb1565b50829750879550505050505092915050565b610f0481611379565b82525050565b6000610f15826112bb565b610f1f81856112ef565b9350610f2f8185602086016113be565b610f38816114e1565b840191505092915050565b6000610f4e826112bb565b610f588185611300565b9350610f688185602086016113be565b610f71816114e1565b840191505092915050565b6000610f89603183611300565b9150610f94826114f2565b604082019050919050565b6000610fac602683611300565b9150610fb782611541565b604082019050919050565b6000610fcf6000836112e4565b9150610fda82611590565b600082019050919050565b6000606083016000830151610ffd6000860182610e68565b50602083015184820360208601526110158282610f0a565b915050604083015161102a6040860182611035565b508091505092915050565b61103e816113a5565b82525050565b61104d816113a5565b82525050565b600061105e82610fc2565b9150819050919050565b600060608201905061107d6000830186610e77565b818103602083015261108f8185610f43565b905061109e6040830184611044565b949350505050565b600060208201905081810360008301526110c08184610e86565b905092915050565b600060208201905081810360008301526110e28184610f43565b905092915050565b600060408201905081810360008301526111048185610f43565b90506111136020830184610e77565b9392505050565b600060608201905081810360008301526111348186610f43565b90506111436020830185610e77565b6111506040830184611044565b949350505050565b600060408201905081810360008301526111728185610f43565b90506111816020830184611044565b9392505050565b600060208201905081810360008301526111a181610f7c565b9050919050565b600060208201905081810360008301526111c181610f9f565b9050919050565b60006020820190506111dd6000830184611044565b92915050565b60006040820190506111f86000830185611044565b818103602083015261120a8184610f43565b90509392505050565b60006060820190506112286000830186611044565b6112356020830185611044565b6112426040830184610efb565b949350505050565b6000611254611265565b90506112608282611423565b919050565b6000604051905090565b600067ffffffffffffffff82111561128a576112896114b2565b5b611293826114e1565b9050602081019050919050565b6000819050602082019050919050565b600081519050919050565b600081519050919050565b6000602082019050919050565b600082825260208201905092915050565b600081905092915050565b600082825260208201905092915050565b600082825260208201905092915050565b600061131c826113a5565b9150611327836113a5565b9250827fffffffffffffffffffffffffffffffffffffffffffffffffffffffffffffffff0382111561135c5761135b611454565b5b828201905092915050565b600061137282611385565b9050919050565b60008115159050919050565b600073ffffffffffffffffffffffffffffffffffffffff82169050919050565b6000819050919050565b82818337600083830152505050565b60005b838110156113dc5780820151818401526020810190506113c1565b838111156113eb576000848401525b50505050565b6000600282049050600182168061140957607f821691505b6020821081141561141d5761141c611483565b5b50919050565b61142c826114e1565b810181811067ffffffffffffffff8211171561144b5761144a6114b2565b5b80604052505050565b7f4e487b7100000000000000000000000000000000000000000000000000000000600052601160045260246000fd5b7f4e487b7100000000000000000000000000000000000000000000000000000000600052602260045260246000fd5b7f4e487b7100000000000000000000000000000000000000000000000000000000600052604160045260246000fd5b6000601f19601f8301169050919050565b7f596f7520646f6e2774206861766520656e6f75676820657468657220746f207060008201527f617920666f7220746865207072697a6521000000000000000000000000000000602082015250565b7f4661696c656420746f207769746864726177206d6f6e65792066726f6d20636f60008201527f6e74726163740000000000000000000000000000000000000000000000000000602082015250565b50565b61159c81611367565b81146115a757600080fd5b50565b6115b3816113a5565b81146115be57600080fd5b5056fea2646970667358221220edd6c00d189154c6d885ee354d720f9da6a8801ab47fd520937628900de7234164736f6c63430008040033596f20796f2c204920616d206120636f6e747261637420616e64204920616d20736d617274",
  "linkReferences": {},
  "deployedLinkReferences": {}
}